:100977006572726F7220696478203A20253464208A
:100987003A203078253258202C2030782532580DDF
:100997000A00636F6D706172655F62756666657286
:1009A7002066696E697368200D0A0064756D705F53
:1009B700627566666572203A202532640D0A00303A
:1009C700782532582C000D0A000D0A0D0A003078E0
:1009D70025303458202000253032582000202000B0
:1009E7002563002E000A0050574D2064757479283E
:1009F700253364293A2535642C2535640D0A000D05
:100A07000A50574D28253564293A30782532582021
:0A0A1700202C30782532580D0A001B
:100F290041003E0041003F00C10A44004400000066
:0D0F3900004400400000000042004803E8B2
:100F0900900040E0FCA3E0FDA3E0FEA3E02401FF84
:100F1900E43EFEE43DFDE43CFC9000401204F42272
:0F000E00900040E0FCA3E0FDA3E0FEA3E0FF2292
:070003009000401204F422FA
:0B06F90090004BEBF0A3EAF0A3E9F047
:10070400E4900053F0A3F0900053F0A3F090005154
:10071400E0FEA3E0FFA3E0FCA3E0FDC39FEC9E404A
:10072400030207C290004EE0FBA3E0FAA3E0F98DB8
:10073400828C8312038BFF90004BE0FBA3E0FAA3AF
:10074400E0F98D828C8312038B6F6061900053E01B
:10075400FEA3E0FF90000BEEF0A3EFF090004BE05F
:10076400A3E0A3E08F828E8312038B90000DF090A0
:10077400004EE0FBA3E0FAA3E0F9900053E0A3E00D
:10078400F5828E8312038B90000EF07BFF7A097939
:1007940077120091900044E0FCA3E0FDA3E0FEA3E7
:1007A400E04404FFEEEDEC9000441204F490005495
:1007B400E004F07006900053E004F002071190008A
:1007C40044E0FCA3E0FDA3E0FEA3E05404FFE4FE48
:1007D400FDFCEF60047F0180027F00EF70227BFF4D
:1007E4007A097999120091900044E0FCA3E0FDA3FA
:1007F400E0FEA3E054FBFFEEEDEC9000441204F4A1
:0108040022D1
:100E320090005CEBF0A3EAF0A3E9F090005A74FF93
:100E4200F5F01203ECFED3E5F09400EE94004016A8
:100E520090005CE0FBA3E475F0011203ECA9F0FA48
:060E6200ED1203B880D57B
:010E68002267
:100D3F0090003BEBF0A3EAF0A3E9F0900033E0F969
:100D4F00A3E0FAA3E0900038C9F0A3EAF0A3E9F01A
:100D5F00E4FFFED3900037E09F900036E09E402DD9
:100D6F00900038E0FBA3E0FAA3E0F98F828E8312A4
:100D7F00038BFD90003BE0FBA3E0FAA3E0F98F8229
:0D0D8F008E83ED1203CA0FBF00010E80C657
:010D9C002234
:100ABB00900068EBF0A3EAF0A3E9F0A3ECF0A3ED50
:010ACB00F03A
:100ACC00E4A3F0A3F07BFF7A0979B290000BECF071
:100ADC00A3EDF0120091E490006DF0A3F090006B88
:100AEC00E0FEA3E0FFA3E0FCA3E0FDC39FEC9E505F
:100AFC004A900068E0FBA3E0FAA3E0F98D828C83B6
:100B0C0012038B90000BF07BFF7A0979C6120091CF
:100B1C0090006EE02401FF90006DE03400EF54076C
:100B2C0070097BFF7A0979CD12009190006EE00478
:100B3C00F0700690006DE004F080A27BFF7A0979DA
:040B4C00D012009132
:010B50002282
:1005BD0090005FEBF0A3EAF0A3E9F0A3ECF0A3ED5C
:0105CD00F03D
:1005CE00E4A3F0A3F0D3900063E09400900062E007
:1005DE006480948050030206EF7BFF7A0979D590F0
:1005EE000064E0FFA3E090000BCFF0A3EFF0120049
:1005FE0091E4900066F0A3F0900066E0FEA3E0FFA9
:10060E00C39410EE64809480503B900065E02FFF01
:10061E00900064E03EFE90005FE0FBA3E0FAA3E0F2
:10062E00F98F828E8312038B90000BF07BFF7A0979
:10063E0079DE120091900067E004F070069000667B
:10064E00E004F080B37BFF7A0979E4120091E49024
:10065E000066F0A3F0900066E0FEA3E0FFC39410E6
:10066E00EE648094805060900065E02FFF900064EF
:10067E00E03EFE90005FE0FBA3E0FAA3E0F98F827C
:10068E008E8312038BFFC394204015EF947F50107E
:10069E0090000BEFF07BFF7A0979E7120091800949
:1006AE007BFF7A0979EA120091900063E024FFF053
:1006BE00900062E034FFF0900067E004F070069066
:1006CE000066E004F0808E900065E02410F090004B
:1006DE0064E03400F07BFF7A0979EC120091020598
:0A06EE00D37BFF7A0979EC1200912A
:0106F80022DF
:0B0F6400EF1FAC0670011E4C70F6225F
:080BDF00900004EEF0A3EFF01A
:100BE700E4A3F0A3F0AFD1EF7F00FEADD97C00E422
:100BF7002DFFEC3ECF2401CF3400FE900004E0FC33
:100C0700A3E0FD120531E47B64FAF9F812043E9083
:100C17000006EEF0A3EFF07BFF7A0979EE9000046F
:100C2700E0FFA3E090000BCFF0A3EFF0900006E009
:100C3700FFA3E090000DCFF0A3EFF0AFD1EFFEAD33
:100C4700D97C00E42DFFEC3EA3F0A3EFF012009156
:100C5700900006E0FCA3E0FDECF5D3EDF5DBD2DE7A
:020C6700D2DFDA
:010C69002268
:10080500900000EEF0A3EFF0A3ECF0A3EDF0A2AFA3
:100815009209C2AF75C7AA75C755E4F591A20992A9
:10082500AF53B3FD43B40243DE0253DF3F53DFF85A
:1008350043DF06900000E0FEA3E0FFFBAA06E4F913
:10084500F87FD87EB87D05FC12043EEF24FFFFEE4D
:1008550034FFFEED34FFFDEC34FFFC78081204E1B3
:100865008FD1900000E0FEA3E0FFFBAA06E4F9F8B3
:100875007FD87EB87D05FC12043EEF24FFFFEE34E1
:10088500FFFEED34FFFDEC34FFFCEFE48FD97BFF79
:100895007A0A7906900000E0FFA3E090000BCFF004
:1008A500A3EFF0A3E5D1F0A3E5D9F01200919000F4
:0A08B50002E0FEA3E0FF120BDF22B9
:100C6A00900044E0FCA3E0FDA3E0FEA3E05402FFF1
:100C7A00E4FEFDFCEF60047F0180027F00EF604F1D
:100C8A00900044E0FCA3E0FDA3E0FEA3E054FDFFD6
:100C9A00EEEDEC9000441204F4900048E0FEA3E06C
:100CAA00FF7D327C00120805900048E0FEA3E0FFB9
:100CBA0064644E700A7C037DE87E037FE88008EF57
:100CCA00249CFFEE34FFFE900048EEF0A3EFF022E2
:100DE800A2AF9209C2AF75C7AA75C755E4F591A21B
:100DF8000992AF53B3FB43B404A2AF9209C2AF75D3
:100E0800C7AA75C755F591A20992AF53B37F53B4DA
:100E18007FA2AF9209C2AF75C7AA75C755F591A24F
:0A0E28000992AF53ACFE43AD012266
:100CDA00120F0912000EE47BE87A03F9F812043EB7
:100CEA00AC00AD01AE02AF03E4FBFAF9F8C312049B
:100CFA00D07005A292B3929212000E12000EE47BFB
:100D0A00887A13F9F812043EAC00AD01AE02AF03C3
:100D1A00E4FBFAF9F8C31204D07019900044E0FC1D
:100D2A00A3E0FDA3E0FEA3E04402FFEEEDEC900099
:050D3A00441204F42244
:03000B00020D9D46
:100D9D00C0E0C0F0C083C082C0D075D000C000C01C
:100DAD0001C002C003C004C005C006C007C09190B9
:100DBD00003EE0F58CA3E0F58AC28D120CDAD091DD
:100DCD00D007D006D005D004D003D002D001D0007A
:0B0DDD00D0D0D082D083D0F0D0E03224
:100E6900E4900000F0A3F07D307CF85389F04389C9
:100E790001538EF7EC90003EF07430A3F090003EE1
:0D0E8900E0F58CA3E0F58AD2A9D2AFD28C9F
:010E96002239
:03002300020EBE0C
:100EBE00C0E0C083C082C09130980AD20A90004A26
:100ECE00E599F0C298309905200B02C299D091D0C5
:060EDE0082D083D0E03257
:1008BF009000001205000001C200A2AF9209C2AF62
:1008CF0075C7AA75C755E4F591A20992AF53B1BF89
:1008DF0053B2BF75985043878053C4F8A2AF9209A3
:1008EF00C2AF75C7AA75C755F591A20992AF43C498
:1008FF0020900000E0F8A3E0F9A3E0FAA3E0FB7F6B
:10090F00607EE37D167C0012043EC3E49FFFE49EED
:10091F00FE74019DFDE49CFC78081204E18FC690E3
:10092F000000E0F8A3E0F9A3E0FAA3E0FB7F607E0C
:10093F00E37D167C0012043EC3E49FFFE49EFE7429
:10094F00019DFDE49CFCEFE48FC5A2AF9209C2AFFD
:10095F0075C7AA75C755F591A20992AF43C408D2BE
:07096F00ACD2AFD299D20B0C
:01097600225E
:100B51009000007406F0E4F59175A638A2AF9209F1
:100B6100C2AF75C7AA75C755439F01A20992AFF5D8
:100B7100A775AF04A2AF9209C2AF75C7AA75C755D1
:100B810043A401A20992AF85AE0805A6A2AF9209BE
:100B9100C2AF75C7AA75C75543A401A20992AF8513
:100BA100AE09A2AF9209C2AF75C7AA75C755539FC7
:100BB100FEA20992AF75C7AA75C75585088475C786
:100BC100AA75C755850985A2AF9209C2AF75C7AA93
:0D0BD10075C755539FFEA20992AF5387EFE1
:010BDE0022F4
:100EE400120B51A2AF9209C2AF75C7AA75C755E4D8
:100EF400F591A20992AFF5B1F5B2F5B3F5B4F5AC3D
:050F0400F5ADD2AF22A3
:100F4700120EE41208BF120DE8120E697D327C0002
:0D0F57007FE87E03120805120C6A80FB2261
:03000000020A21D0
:100A2100787FE4F6D8FD9000007FFF7E03E4F0A319
:0A0A3100DFFCDEFA758121020A766F
:100A3B00020F47E493A3F8E493A34003F68001F27B
:100A4B0008DFF48029E493A3F85407240CC8C333BC
:100A5B00C4540F4420C8834004F456800146F6DF8B
:100A6B00E4800B0102040810204080900F29E47EE3
:100A7B00019360BCA3FF543F30E509541FFEE49380
:100A8B00A360010ECF54C025E060A840B8E493A347
:100A9B00FAE493A3F8E493A3C8C582C8CAC583CA72
:100AAB00F0A3C8C582C8CAC583CADFE9DEE780BE2A
:010F460000AA
:10038B00BB010CE58229F582E5833AF583E0225027
:10039B0006E92582F8E622BBFE06E92582F8E22271
:0D03AB00E58229F582E5833AF583E493228B
:1003B800BB010689828A83F0225002F722BBFE0124
:0203C800F3221E
:1003CA00F8BB010DE58229F582E5833AF583E8F069
:1003DA00225006E92582C8F622BBFE05E92582C815
:0203EA00F222FD
:1003EC00A3F8E0C5F025F0F0E582158270021583C4
:0603FC00E0C838F0E82221
:1004020075F008758200EF2FFFEE33FECD33CDCCB1
:1004120033CCC58233C5829BED9AEC99E582984034
:100422000CF582EE9BFEED9AFDEC99FC0FD5F0D611
:10043200E4CEFBE4CDFAE4CCF9A88222B800C1B93B
:100442000059BA002DEC8BF084CFCECDFCE5F0CB79
:10045200F97818EF2FFFEE33FEED33FDEC33FCEBB2
:1004620033FB10D703994004EB99FB0FD8E5E4F96D
:10047200FA227818EF2FFFEE33FEED33FDEC33FC5A
:10048200C933C910D7059BE99A4007EC9BFCE99A4E
:10049200F90FD8E0E4C9FAE4CCFB2275F010EF2F93
:1004A200FFEE33FEED33FDCC33CCC833C810D70793
:1004B2009BEC9AE899400AED9BFDEC9AFCE899F8CE
:0E04C2000FD5F0DAE4CDFBE4CCFAE4C8F92261
:1004D000EB9FF5F0EA9E42F0E99D42F0E89C45F082
:0104E00022F9
:1004E100E8600FECC313FCED13FDEE13FEEF13FFF9
:0304F100D8F1221D
:0C04F400ECF0A3EDF0A3EEF0A3EFF0227B
:10050000A8828583F0D083D08212051712051712B6
:100510000517120517E473E493A3C583C5F0C583DB
:10052000C8C582C8F0A3C583C5F0C583C8C582C845
:0105300022A8
:10053100EC8EF0A4CCC5F0CCCDF8EFA4CEC5F02D57
:10054100FDE43CFCE8A42EC8C5F03DFDE43CFCEF15
:0D055100A4FFE5F028FEE43DFDE43CFC22A3
:10002600E508240BF582E43400F583E00508229008
:10003600000830070390000BE475F0011205770203
:10004600055E2000E97F2ED2008018EF540F249021
:10005600D43440D4FF30040BEF24BFB41A0050034D
:100066002461FFE50960021509050CE50C7002051F
:100076000B30070E900008E475F001120577EF02C9
:1000860003B8020E977403D2078003E4C207F5088B
:1000960090000812058EE4F509F50BF50CE50960EC
:1000A600077F2012006980F5750AFFC201C200C2EF
:1000B60002C203C205C206C208120035FF700D3027
:1000C60007057F0012007AAF0CAE0B22B4255FC283
:1000D600D5C204120035FF24D0B40A00501A75F0B8
:1000E6000A780930D50508B6FF0106C6A426F6200B
:1000F600D5047002D20380D924CFB41A00EF50047D
:10010600C2E5D20402027BD20180C6D20080C0D2F0
:100116000280BCD2D580BAD20580B47F2012006995
:100126002002077401B5090040F1120026FF1200F3
:10013600690200A3D208D2068095120026FB12009F
:1001460026FA120026F94A4B7006794C7A037BFF91
:1001560020022EE509602A7E008E82758300120336
:100166008B60060EEE650A70F0C2D5EBC0E0EAC001
:10017600E0E9C0E0EE1202C2D0E0F9D0E0FAD0E049
:10018600FB12055EFF60AAEBC0E0EAC0E0E9C0E052
:10019600120069D0E02401F9D0E03400FAD0E0FB87
:1001A600E50A0460DCD50AD980877BFF7A0279BE2E
:1001B600D202809C791080027908C206C2088008A3
:1001C600D2D5790A8004790AC2D5E50A047002F507
:1001D6000AE4FAFDFEFF120026FC7B08200113123A
:1001E6000026FD7B1030000A120026FE120026FFB4
:1001F6007B20EC3382D592D55013C3E43000069FA2
:10020600FFE49EFEE42001039DFDE49CFCE4CBF8A4
:10021600C201EC700CCFCECDCCE824F8F870F38098
:1002260017C3EF33FFEE33FEED33FDEC33FCEB3358
:10023600FB994002FB0FD8E9EB300105F8D0E0C48A
:1002460048B201C0E00AEC4D4E4F78207B0070C2E8
:10025600EAB50A0040BCC0E01202C4D0F0D0E020EB
:100266000104C4C0E0C4B201C0F0120052D0F0D5FF
:10027600F0EB0200A312059701405301BA58011191
:100286004C010D4201BE4F01C64401C64901264339
:0802960001CC5501B04601B096
:10029E004501B047036C5001152D01192E013C2B61
:1002AE00011D23013A2003552A00D54800000134D0
:1002BE003F3F3F00790AA2D5200314300509B9103B
:1002CE00020404B9080104A2D5200602500104203C
:1002DE0002689202B509005034C0E07F2030031945
:1002EE007F30A20272067205500F12031BC202C2A9
:1002FE0006C205C2087F30800F300503E9C0E01248
:10030E000069300503D0E0F9D0E0B509CC3005170F
:10031E007F30B9100C1200697F583004077F788047
:10032E0003B908031200693002057F2D0200697FB0
:10033E00202008F87F2B2006F322920280CF286E11
:10034E00756C6C2900D2011200263001F8C20178BA
:10035E000930D50108F60200D52D50434958120038
:10036E00262403B405004001E49003679312005A5B
:0D037E00743A12005AD2037509040201BA44
:10055E00BB010689828A83E0225002E722BBFE029B
:09056E00E32289828A83E49322CE
:10057700F8E0FBA3A3E0F925F0F0E582158270020D
:070587001583E0FA38F022B1
:09058E00EBF0A3EAF0A3E9F0226E
:10059700D083D082F8E4937012740193700DA3A3F3
:1005A70093F8740193F5828883E473740293686007
:0605B700EFA3A3A380DF07
:100E9700EFB40A07740D120EA2740A309811A899BC
:100EA700B8130CC2983098FDA899C298B811F630BB
:070EB70099FDC299F5992293
:00000001FF
